:020000040800F2
:1000000000000824113F0108052201080722010809
:10001000092201080B2201080D220108000000003E
:10002000000000000000000000000000215B00084C
:100030000F22010800000000B15B000875530008A2
:10004000613F0108613F0108613F0108613F01080C
:10005000613F0108613F0108613F0108613F0108FC
:10006000613F0108613F0108613F0108613F0108EC
:10007000613F0108613F0108613F0108613F0108DC
:10008000613F0108613F0108613F0108613F0108CC
:10009000613F0108613F0108613F0108613F0108BC
:1000A000613F0108613F0108613F0108613F0108AC
:1000B00011220108613F0108613F0108613F010809
:1000C000613F0108613F0108613F0108613F01088C
:1000D000613F0108613F0108613F0108613F01087C
:1000E0001D220108613F010800000000613F010876
:1000F000613F0108613F0108613F0108613F01085C
:10010000613F010825220108613F0108613F0108A4
:10011000613F0108613F010831220108613F010888
:10012000613F0108613F0108613F0108613F01082B
:10013000613F0108613F0108613F0108613F01081B
:10014000613F0108613F010800000000000000005D
:10015000613F0108613F0108613F0108613F0108FB
:10016000613F0108613F0108613F0108613F0108EB
:10017000613F01083D220108613F010800000000C5
:10018000613F0108613F0108613F0108613F0108CB
:10019000613F0108613F0108613F0108613F0108BB
:1001A00049220108613F010855220108613F010809
:1001B000613F0108613F0108613F0108613F01089B
:1001C000613F0108613F0108613F0108613F01088B
:1001D000613F0108613F0108613F0108613F01087B
:1001E000613F0108613F0108613F0108613F01086B
:1001F000613F0108613F0108613F0108613F01085B
:10020000613F0108613F0108613F0108613F01084A
:10021000613F0108613F0108613F0108613F01083A
:10022000613F0108612201086D220108613F010858
:10023000613F0108613F0108613F0108613F01081A
:10024000613F0108613F0108613F0108613F01080A
:10025000613F0108613F0108613F0108613F0108FA
:10026000613F0108613F0108613F0108613F0108EA
:10027000613F0108613F0108613F0108613F0108DA
:10028000613F0108613F0108613F01080000000073
:08029000613F0108613F010814
:1002C00002780B78012A28BF9A4240F0D8806DE965
:1002D000044540EA0104CDE902676FF0000C4FEAE3
:1002E00044721AB380EA010414F0070F6BD100F0D6
:1002F000070420F0070004F0030521F007014FEA8E
:10030000C505F0E8042314F0040FF1E804670CFAC3
:1003100005F462EA040266EA04060BD063EA040309
:10032000624667EA0407664604E000BFF0E804237B
:10033000F1E8046782FA4CF582EA0604A4FA8CF428
:100340006CBB83FA4CF583EA0705A5FA8CF595B9E1
:1003500050E9022351E9026782FA4CF582EA060469
:10036000A4FA8CF483FA4CF583EA0705A5FA8CF518
:100370002543DBD09CB92DBAB5FA85F424F00704E7
:1003800027FA04F1DDE9026723FA04F303F0FF0022
:1003900001F0FF01FDE80445A0EB0100704724BA1D
:1003A000B4FA84F424F0070426FA04F1DDE90267C4
:1003B00022FA04F202F0FF0001F0FF01FDE804451B
:1003C000A0EB0100704714F0030F3CD110F00304C0
:1003D00028D150F8082B51F8083B82FA4CF582EAF4
:1003E0000305A5FA8CF55DB950F8042C51F8043CCE
:1003F00082FA4CF582EA0305A5FA8CF5002DE8D0C7
:100400002DBAB5FA85F424F0070423FA04F122FA90
:1004100004F202F0FF0001F0FF01FDE80445A0EB4B
:10042000010070474FEAC40420F0030050F8082B85
:1004300021F0030151F8083B0CFA04F462EA0402CB
:1004400063EA0403C9E710F003041DD0A1EB040123
:1004500020F00300E40750F8042B06D012D28B786A
:100460005FFAA2F4E41A06D12BB1CB785FFAB2F4AA
:10047000E41A00D133B920465DF8104B7047A2EB67
:100480000300704701F1040150F8042BCC0721F060
:10049000030151F8043B48D824D222F07F4482FA69
:1004A0004CF594EA1325A5FA8CF50AD165B951F8F3
:1004B000043B84EA0204B4EB036F0ED150F8042B22
:1004C000EBE74FEA132355E035F07F454DD108782F
:1004D000FDE80445C0F1000070474FEA126203F0E6
:1004E000FF0347E002EA1C4482FA4CF594EA134504
:1004F000A5FA8CF50AD165B951F8043B84EA0204E7
:10050000B4EB034F0CD150F8042BEBE74FEA134345
:1005100030E015EA1C4528D10B884FEA124229E049
:100520004FEA124203EA1C4324E002F0FF0482FA7D
:100530004CF594EA1365A5FA8CF50AD165B951F822
:10054000043B84EA0204B4EB032F09D150F8042BD6
:10055000EBE74FEA13630DE015F0FF0F05D10B68D1
:100560004FEA122223F07F4304E04FF00000FDE841
:100570000445704712BA1BBA82FA4CF482EA0304AB
:10058000A4FA8CF5B5FA85F402FA04F203FA04F33E
:100590004FEA1260FDE80445A0EB1360704700BF0E
:1005A00001F0FF01102A2BDB10F0070F08D010F824
:1005B000013B013A8B422DD010F0070F42B3F6D128
:1005C000F0B441EA012141EA014122F007047FF041
:1005D00000070023F0E80256083C85EA010586EA98
:1005E000010685FA47F5A3FA87F586FA47F6A5FAD4
:1005F00087F68EB9EED1F0BC01F0FF0102F00702E0
:1006000032B110F8013B013A83EA010313B1F8D18A
:100610000020704701387047002D06BF354603386B
:10062000073815F0010F07D1013015F4807F02BFA4
:10063000013015F4C03F0130F0BC0138704700BFF5
:10064000844641EA000313F003036DD1403A41D3DD
:1006500051F8043B40F8043B51F8043B40F8043B9C
:1006600051F8043B40F8043B51F8043B40F8043B8C
:1006700051F8043B40F8043B51F8043B40F8043B7C
:1006800051F8043B40F8043B51F8043B40F8043B6C
:1006900051F8043B40F8043B51F8043B40F8043B5C
:1006A00051F8043B40F8043B51F8043B40F8043B4C
:1006B00051F8043B40F8043B51F8043B40F8043B3C
:1006C00051F8043B40F8043B51F8043B40F8043B2C
:1006D000403ABDD2303211D351F8043B40F8043BCC
:1006E00051F8043B40F8043B51F8043B40F8043B0C
:1006F00051F8043B40F8043B103AEDD20C3205D3DC
:1007000051F8043B40F8043B043AF9D2043208D0D3
:10071000D2071CBF11F8013B00F8013B01D30B8845
:1007200003806046704700BF082A13D38B078DD023
:1007300010F003038AD0C3F10403D21ADB071CBFF5
:1007400011F8013B00F8013B80D331F8023B20F85F
:10075000023B7BE7043AD9D3013A11F8013B00F898
:10076000013BF9D20B7803704B7843708B78837020
:10077000604670470000000000000000000000001C
:1007800030B490F800F020F007016FF0000C10F08A
:10079000070491F820F040F048804FF000046FF01B
:1007A0000700D1E9002391F840F000F1080082FA37
:1007B0004CF2A4FA8CF283FA4CF3A2FA8CF34BBB02
:1007C000D1E9022382FA4CF200F10800A4FA8CF27B
:1007D00083FA4CF3A2FA8CF3E3B9D1E9042382FA49
:1007E0004CF200F10800A4FA8CF283FA4CF3A2FA5E
:1007F0008CF37BB9D1E9062301F1200182FA4CF296
:1008000000F10800A4FA8CF283FA4CF3A2FA8CF3FC
:10081000002BC6D0002A04BF04301A4612BAB2FA1E
:1008200082F200EBD20030BC7047D1E9002304F023
:100830000305C4F100004FEAC50514F0040F91F858
:1008400040F00CFA05F562EA05021CBF63EA0503F5
:1008500062464FF00004AAE781F0004102E000BFC9
:1008600083F0004330B54FEA41044FEA430594EA70
:10087000050F08BF90EA020F1FBF54EA000C55EAAB
:10088000020C7FEA645C7FEA655C00F0E2804FEA7C
:100890005454D4EB5555B8BF6D420CDD2C4480EA5E
:1008A000020281EA030382EA000083EA010180EA8E
:1008B000020281EA0303362D88BF30BD11F0004FDC
:1008C0004FEA01314FF4801C4CEA113102D0404212
:1008D00061EB410113F0004F4FEA03334CEA13334D
:1008E00002D0524263EB430394EA050F00F0A78065
:1008F000A4F10104D5F1200E0DDB02FA0EFC22FA60
:1009000005F2801841F1000103FA0EF2801843FA53
:1009100005F359410EE0A5F120050EF1200E012A44
:1009200003FA0EFC28BF4CF0020C43FA05F3C01882
:1009300051EBE37101F0004507D54FF0000EDCF1FB
:10094000000C7EEB00006EEB0101B1F5801F1BD3A4
:10095000B1F5001F0CD349085FEA30004FEA3C0CA8
:1009600004F101044FEA445212F5800F80F09A809E
:10097000BCF1004F08BF5FEA500C50F1000041EBA2
:10098000045141EA050130BD5FEA4C0C404141EBA6
:100990000101013C28BFB1F5801FE9D291F0000FA1
:1009A00004BF01460020B1FA81F308BF2033A3F150
:1009B0000B03B3F120020CDA0C3208DD02F1140C47
:1009C000C2F10C0201FA0CF021FA02F10CE002F182
:1009D0001402D8BFC2F1200C01FA02F120FA0CFC7B
:1009E000DCBF41EA0C019040E41AA2BF01EB0451C4
:1009F000294330BD6FEA04041F3C1CDA0C340EDCC2
:100A000004F11404C4F1200220FA04F001FA02F304
:100A100040EA030021FA04F345EA030130BDC4F1C2
:100A20000C04C4F1200220FA02F001FA04F340EAB7
:100A30000300294630BD21FA04F0294630BD94F068
:100A4000000F83F4801306BF81F480110134013D4F
:100A50004EE77FEA645C18BF7FEA655C29D094EAC0
:100A6000050F08BF90EA020F05D054EA000C04BF3E
:100A70001946104630BD91EA030F1EBF0021002029
:100A800030BD5FEA545C05D14000494128BF41F0C8
:100A9000004130BD14F580043CBF01F5801130BD2C
:100AA00001F0004545F0FE4141F470014FF00000B7
:100AB00030BD7FEA645C1ABF194610467FEA655C68
:100AC0001CBF0B46024650EA013406BF52EA03350A
:100AD00091EA030F41F4002130BD00BF90F0000FF8
:100AE00004BF0021704730B54FF4806404F1320434
:100AF0004FF000054FF0000150E700BF90F0000FED
:100B000004BF0021704730B54FF4806404F1320413
:100B100010F0004548BF40424FF000013EE700BFE3
:100B200042004FEAE2014FEA31014FEA02701FBF73
:100B300012F07F4393F07F4F81F06051704732F0A5
:100B40007F4208BF704793F07F4F04BF41F40021FC
:100B5000704730B54FF4607401F0004521F000415A
:100B60001CE700BF50EA010208BF704730B54FF0E4
:100B700000050AE050EA010208BF704730B511F0E5
:100B8000004502D5404261EB41014FF4806404F11D
:100B900032045FEA915C3FF4D8AE4FF003025FEAA3
:100BA000DC0C18BF03325FEADC0C18BF033202EB27
:100BB000DC02C2F1200300FA03FC20FA02F001FA81
:100BC00003FE40EA0E0021FA02F11444BDE600BF24
:100BD00053B94AB9002908BF00281CBF4FF0FF31A4
:100BE0004FF0FF3000F0E2B8ADF1080C6DE904CE33
:100BF00038F096FADDF804E0DDE9022304B070472E
:100C000000F1340191E838009C46A6464CF8045D9A
:100C100090E8FF0FE54600BD90EC210B704700BF48
:100C200080EC210B704700BF90EC200B704700BF99
:100C300080EC200B704700BFD0EC200B704700BF4A
:100C4000C0EC200B704700BFF0EC0201F0EC021189
:100C5000F0EC0221F0EC0231F0EC0241F0EC025138
:100C6000F0EC0261F0EC0271F0EC0281F0EC029128
:100C7000F0EC02A1F0EC02B1F0EC02C1F0EC02D118
:100C8000F0EC02E1F0EC02F1704700BFE0EC020191
:100C9000E0EC0211E0EC0221E0EC0231E0EC024178
:100CA000E0EC0251E0EC0261E0EC0271E0EC028168
:100CB000E0EC0291E0EC02A1E0EC02B1E0EC02C158
:100CC000E0EC02D1E0EC02E1E0EC02F1704700BFA1
:100CD000B0FC0181B0FC0191B0FC01A1B0FC01B1FC
:100CE000704700BFA0FC0181A0FC0191A0FC01A104
:100CF000A0FC01B1704700BFEC4600B52DE90050E3
:100D00002DE9FF1F4FF000032DE90C0001A938F079
:100D1000C1FCDDF840E012B0704700BFEC4600B502
:100D20002DE900502DE9FF1F4FF000032DE90C00C5
:100D300001A938F0EBFCDDF840E012B0704700BFCD
:100D4000EC4600B52DE900502DE9FF1F4FF00003E0
:100D50002DE90C0001A938F0FBFCDDF840E012B0F1
:100D6000704700BFEC4600B52DE900502DE9FF1F8C
:100D70004FF000032DE90C0001AB38F0BFFCDDF8AB
:100D800040E012B0704700BFEC4600B52DE90050BE
:100D90002DE9FF1F4FF000032DE90C0001AA38F0E8
:100DA00037FDDDF840E012B0704700BF704700BF6C
:100DB0000348044B834202D0034B03B118477047EA
:100DC000A0070024A0070024000000000548064BEF
:100DD0001B1AD90F01EBA301491002D0034B03B139
:100DE00018477047A0070024A00700240000000057
:100DF00010B5064C237843B9FFF7DAFF044B13B163
:100E00000448AFF300800123237010BDA09F00248D
:100E1000000000008CA2030808B5054B1BB1054972
:100E20000548AFF30080BDE80840FFF7CFBF00BF23
:100E300000000000A49F00248CA20308704704381F
:100E40007047704710B50446102129F0BFFF2046B7
:100E500010BDA0F10400F5E7C06800F035B8A0F1BE
:100E60000400FFF7F9BF00000022C1608260024A5F
:100E700002601C32426070473CA303087047704711
:100E800070477047034B10B50446036000F0E5F867
:100E9000204610BD6CA3030810B50446FFF7F2FF0F
:100EA0004FF49761204629F091FF204610BD0000C5
:100EB00010B5044600F06CF9014B2046236010BDCC
:100EC0006CA3030800F0CAB810B5012900F198041A
:100ED00018BF0021204616F0A4FB2046BDE81040B4
:100EE0001AF092BE002202607047000013B5002382
:100EF000044608480DF107011A46006804F063FC37
:100F000028B920689DF8071003689B68984702B0CD
:100F100010BD00BF7CDC0224704700F598730868A0
:100F2000496803C37047704700F014BC10B504460D
:100F30004FF4AE7129F04AFF204610BD10B50446AB
:100F4000D0F85801FFF7D2FF2046BDE8104019F055
:100F500043BD10B50446D0F8400158B10368DB68C2
:100F6000984738B1D4F8400103689B68984700233C
:100F7000C4F8403110BD000010B5044600F0B6FBC7
:100F8000014B2046236010BDA0A30308002070473A
:100F900081807047C18070470181704741817047EF
:100FA0007047704770477047704710B4C488036833
:100FB000121B84885B6D091B12B25DF8044B09B2E9
:100FC00018474FF6FF7383814FF0FF3303621368B6
:100FD000C3611060704770477047704730B585B087
:100FE0000368044601816D460146D3F884303C34E1
:100FF0002846984795E8070084E8070005B030BD0B
:1010000030B585B00368044641816D460146D3F88A
:1010100084303C342846984795E8070084E8070068
:1010200005B030BD0022028042808280C2807047BD
:1010300080F836107047036870B504461B6B154680
:1010400098472368204629465B6EBDE870401847E4
:1010500000207047806C704770477047704710B52C
:101060000446082129F0B2FE204610BD10B5044602
:101070004C2129F0ABFE204610BD10B504464FF4BC
:10108000976129F0A3FE204610BD90F8252012B1EB
:1010900003685B691847704708B5FFF7F6FF08BD9E
:1010A00090F825201AB190F8242002B118607047FA
:1010B000036870B55E6B0446114B8DB21B682BB98B
:1010C000104B6C21104A114831F09EFD1049828D61
:1010D0000988914203D80F4B6D210B4AF3E713F8AF
:1010E00012200D4B1B6853F8220003681B6B9847B6
:1010F000291A3346204609B2BDE87040184700BFA0
:1011000078EC0224ECA303082EA4030869A40308C6
:101110006CEC0224AEA4030870EC022400224FF011
:10112000FF318260C0E900217047036870B5044652
:101130001B6B154698472368204629465B6BBDE824
:101140007040184770B504461D46BDF91060FFF7A2
:10115000ECFF2368294620469B6B9847236831465D
:101160002046DB6BBDE87040184700000022C0E954
:101170000122C0E90322C0E90522C0E907224FF499
:1011800080728284014A0260704700BF74BF030806
:101190002DE9F04F04468DB000251BF05FFCA14601
:1011A000C94B26222946E563FF2649F8403B4846BD
:1011B00034F090F84846FFF7D9FFC44B4FF6FF775D
:1011C0002622236404F16C03294684F866601846DD
:1011D000A566029304F51C78ADF8287034F07AF80F
:1011E000029804F52F7AFFF7C1FFB94B0AA90298BC
:1011F000E36604F56C7BBDF8283084F8946004F154
:10120000D006A4F8923016F0FCFD04F198032622D3
:1012100029461846039334F05DF80398FFF7A6FFBC
:101220004FF001033046A4F8C67084F8BC30A94BD7
:10123000A4F8C870C4F8983084F8CA70A4F8CC70C8
:10124000C4F8C05084F8C45016F0A2FB26222946E8
:10125000404634F03FF84046FFF788FF9E4BA4F825
:101260009C725046C4F898324FF47F03C4F8A052E1
:10127000271DC4F8A432994BA4F8A852C4F87032C0
:101280004FF0FF33C4F8AC52C4F8B852C4E9AC35DF
:1012900013F01EFD584613F01BFD4FF416732A463B
:1012A0004846294600934FF48063FFF74BFF4FF009
:1012B0007F4349463846A3664FF0070913F051F8BB
:1012C0002A4629460298FFF730FF05230AA902980B
:1012D000ADF8283016F095FD0299384613F041F824
:1012E0004B2240F2BB110398FFF71FFF08230AAA05
:1012F00009A9A4F8CC300398ADF82830ADF82490B3
:1013000016F072FC0399384613F02BF8062330468A
:101310000AA9ADF8283012F0B7FFF0233046C422F6
:101320004FF4C4710093FFF70DFF78223046114649
:1013300016F0D2FB304670226FF0700116F042FCBE
:101340002B46642230462946009512F045FE304671
:10135000322116F0EDFB43234A463046294616F06B
:10136000A7FB3046012116F045FB3046012116F05F
:1013700044FB3146384604AE12F0F3FF40F205223A
:1013800040F26B114046FFF7D0FE4FF0FF3330467E
:101390004146C4F8A032D4F87032A4F8A452D3F86D
:1013A0008430984704F52B7396E8070083E807001C
:1013B0004B4B04F2A4461B682BB94A4B60214A4AA6
:1013C0004A4831F021FC4A4B1B881BB9494B61212B
:1013D000454AF5E7484B29464FF00409186800F0E4
:1013E000F9FB464A03460A2130461CF060FF40469E
:1013F000C4F8B8624FF4967616F002FA364B0AA992
:1014000040460A934FF00103ADF82C3016F018FA5D
:101410004146384612F0A5FF504696228321FFF739
:1014200084FE0AAA02234FF0030808A95046ADF82B
:101430002830134609AAADF82090ADF8248013F0A7
:10144000A1FC2B4650460B221021CDE9005613F08B
:101450008BFB64222946504613F097FA29465046E2
:1014600013F01CFA5146384612F07BFF584696227C
:1014700040F27F31FFF759FE4FF0010309AA08A996
:101480005846ADF828300AABADF82090ADF824806E
:1014900013F078FC2B4658460B221021CDE900565C
:1014A00013F062FB64222946584613F06EFA29466F
:1014B000584613F0F3F93846594612F052FF2046C9
:1014C0000DB0BDE8F08F00BF7CC0030870CD0308ED
:1014D000C0CE0308FCCC0308DCBF0308ECBF030844
:1014E00078EC0224ECA30308ECA4030869A4030825
:1014F0006CEC0224AEA4030874EC022437A50308A4
:1015000070477047704741607047704770470123CC
:1015100003727047704710B441680346C2689B6805
:10152000541001EB6200D20748BF0A595DF8044B22
:1015300048BFD35818470346406830B19A681AB973
:10154000D86800F0010070470120704710B50446CC
:101550000C2129F03BFC204610BD10B5044610219B
:1015600029F034FC204610BD10B504464FF4AE718E
:1015700029F02CFC204610BD10B519F08BF903683A
:10158000BDE81040DB6B18472DE9F14FD0E9556AF3
:101590000746B06803681B6A9847B0F5976F05D295
:1015A000444BA321444A454831F02EFB7068036840
:1015B0001B6A98470F2803D8414BA4213E4AF2E703
:1015C000F06803681B6A98470B2803D83D4BA52198
:1015D000394AE8E7DFF8F49019F05CF9043019F0C3
:1015E00099F9D9F8000010B10368DB689847D9F879
:1015F000000010B103681B689847DFF8D480D8F862
:10160000000010B103685B699847D7F83C0110B13E
:1016100003685B689847D8F8000010B103681B683E
:101620009847D7F83C0110B103689B689847F06869
:1016300000214FF0000B03685B6A9847224B044679
:10164000C0F804B080F808B059460360B068036879
:101650005B6A98470546FFF72BFC7068594603689C
:101660005B6A984706462946FFF7FEFB331DC7F81D
:101670003C612846C9F80040C8F80050CAF800305C
:101680002B68C6F808A0DB68EE63984733683046DD
:101690001B689847214628461BF07BFB23682046A1
:1016A0001B699847236820465B6901B0BDE8F04F8D
:1016B000184700BF3AA50308C8A503089AA603085F
:1016C000DFA6030882A703081CC1030860EC0224FC
:1016D00064EC0224044B1B6893F85C200AB1186D7B
:1016E00000B99868704700BF18EC0224F8B5174697
:1016F00004460E4619F0E4F9124B00251C602946F9
:10170000114B2360114BC4E95135114B1868C4E9E2
:1017100053550368C4E94F559B68C4E9557698470B
:10172000284600F01BFAFFF7D5FF22F02CFAFFF74E
:10173000D1FF22F09FFAFFF7CDFF22F0A7FA204653
:10174000F8BD00BF68EC0224C8C00308B0C003089D
:1017500018EC0224064BC0F84801C0F84C310023B5
:10176000C0F8503100F5A273C0F84031704700BF97
:101770008915000813B5002451B1036801AA01942A
:101780008DF803409C680DF10303A04702B010BD23
:101790000846FBE7C0897047008A7047C0887047D9
:1017A00080887047807A00F07F007047807AC00997
:1017B00070470020704700009FED010A704700BF8E
:1017C00000000000406A7047806A704770470B88CD
:1017D0008A889BB2D20A10B54C88C16943EA044397
:1017E00051F82200184410BD10B50446BAB1107B60
:1017F00068B1537BD27A1B0203F4E0631A43236A75
:1018000003EB82031A888A4202D193F9020010BDC9
:1018100005D80138043380B20028F3D1F7E700205F
:10182000F5E710B504462C2129F0D0FA204610BD6A
:1018300030B58BB00446BDF860500895BDF85C50DB
:1018400007959DF8505006959DF84C5005959DF8CC
:10185000485004959DF8445003959DF840500295DA
:101860009DF83C500195BDF8385000951AF01CFECB
:10187000064B20462360159BE361169B2362199B50
:1018800063621A9BA3620BB030BD00BF40C1030866
:101890007047000030B5164D8FB02C68BFF35B8FDA
:1018A00014F0010420D1284629F092FAE0B13F2338
:1018B000012210490993104B10480893104B0A94C9
:1018C0000194CDE906430423CDE902430A23CDE97F
:1018D0000B440093CDE90444FFF7AAFF094831F017
:1018E000B3F9284629F090FA04480FB030BD00BF84
:1018F000BC9F002408F4030840F50308C09F00249F
:101900003CF503089118000810B5002404600C6031
:1019100014601C6010BD704730B5164D8FB02C6838
:10192000BFF35B8F14F0010420D1284629F050FA50
:10193000E0B13F23012210490993104B104808934E
:10194000104B0A940194CDE906430423CDE90243E8
:101950002823CDE90B440093CDE90444FFF768FF49
:10196000094831F071F9284629F04EFA04480FB0C1
:1019700030BD00BFEC9F00242CF4030838F50308A9
:10198000F09F002448F5030817190008704700006D
:1019900030B5164D8FB02C68BFF35B8F14F0010487
:1019A00021D1284629F014FAE8B13F231222104928
:1019B0000993104B10480893104B0A940194CDE9F9
:1019C00006430423CDE902431423CDE90B440093DD
:1019D0001823CDE90444FFF72BFF094831F034F90F
:1019E000284629F011FA04480FB030BD1CA000248D
:1019F0003CF4030844F5030820A000244CF5030838
:101A00008D190008704710B50446042129F0DEF94D
:101A1000204610BD012908B506D0022908D059B9C1
:101A200000F014F8006808BD00F010F84068FAE70C
:101A300000F00CF88068F6E70020F4E700487047F3
:101A4000B4C103080920704702207047004870475E
:101A50004CA0002410B5054CFFF79AFF2060FFF75B
:101A60005BFF6060FFF716FFA06010BD4CA0002474
:101A700000207047002070470EB403B503AB00216F
:101A800053F8042B019319F097FF02B05DF804EBB3
:101A900003B070470CB407B504AB53F8042B0193A3
:101AA00019F08AFF03B05DF804EB02B07047000044
:101AB000436C10B5044673B3038F2BB9184BC52183
:101AC000184A194831F0A0F8C38E00EB43035B8C31
:101AD0000BB31BF08AFE238F012B03D8134BCB21B2
:101AE000134AEEE7E28E40F63F10531C9BB2092BDF
:101AF000194688BFA3F10A0104EB4101498C8142D8
:101B000009D10A2B04EB420228BF0023508C04EBBE
:101B10004303588451842046BDE810401BF069BD42
:101B200025A803082EA80308D9A8030821A903089B
:101B30002FA903081BF025BD10B586B002AC84E8C0
:101B400006001A460AAB214605930193099B0093B0
:101B5000089B18F013FA06B010BD000038B518BB8A
:101B6000124B13481C681349B4B122682244026026
:101B7000626822440A60A26814440F4B00221A8053
:101B8000FFF764FF0546FFF75FFF0C4B1C600C4B33
:101B90001D600C4B188007E00B4B03600B4B0B6078
:101BA0000B4B1C68002CE8D138BD00BF64A000249A
:101BB0005CA0002458A0002460A0002478EC02243B
:101BC00070EC02246CEC022450F503088CF5030839
:101BD00068C20308044B1B6853F82100034B1B68C1
:101BE00003EB4000704700BF58A000245CA0002415
:101BF000012380F87C1080F87D307047704700200A
:101C00007047000081640039024B18BF0121197030
:101C1000704700BF0BEC0224704700207047C36B75
:101C20000BB10846184770474FF6FF707047406881
:101C300003689B69184770477047002070478B887E
:101C4000838001207047704780F82610704790F815
:101C50002600704710B50022B1F90840B1F90A100A
:101C6000028042808480C18010BD002202804280B8
:101C70008280C28070470177704780ED080A704704
:101C800080F82410704780F82510704701207047B5
:101C9000983070478C307047843070477047704779
:101CA00070470000034B902283F85A2383F858238F
:101CB000704700BF00E100E0094A0A49D3680A48BA
:101CC000C3F30A03013B9BB20B801169C1F30A0104
:101CD000013901801364536B43F001035363704770
:101CE000001000506AA0002468A00024014BD3F823
:101CF000AC00704700100050024B0122C3F8AC103A
:101D00005A6270470010005070473823002201FBD0
:101D10000333C25490F838300BB9036C83647047B6
:101D2000704780F84C10704710B50446582129F0D0
:101D30004DF8204610BD10B504462C2129F046F878
:101D4000204610BD10B50446BC2129F03FF82046BE
:101D500010BD000038B5044613F0A9F823689D6E45
:101D600018F098FD01462046A8472368094A4FF01D
:101D70005041D3F88C5020460023A8476368064A98
:101D80005364064B5A60064A1A649A64054A5A64B8
:101D900038BD00BF00201CD084A100242CA1002449
:101DA000004038D00028230013F068B810B504466E
:101DB00013F070F860680368BDE810401B691847AD
:101DC00013F025B813F0A3B910B5044613F036FE8E
:101DD00023682046D3F8BC30BDE81040184710B542
:101DE000044613F055F960680368BDE810401B69AC
:101DF0001847000090F838100D4B10B590F87C4053
:101E00001A788C4209D03AB90A490B4A08881488D2
:101E1000108001220C801A7010BD002AFCD0064AE6
:101E20000449148808880C8010800022F3E700BF62
:101E30000AEC022412EC022414EC0224124A536924
:101E4000DB0370B51ED50023C2F88430BFF34F8F7B
:101E5000D2F8803043F6E074C3F3C900C3F34E33C5
:101E60005B0103EA0406014646EA81750139C2F8BE
:101E70007452F9D2203B13F1200FF2D1BFF34F8FF0
:101E8000BFF36F8F70BD00BF00ED00E008B5094BD8
:101E90001B888B4203D8084B1B88934205D9074BFC
:101EA000A521074A074830F0AFFE074B1980074BC2
:101EB0001A8008BD14EC022412EC022401AA0308C3
:101EC00064AA0308A7AA030810EC02240EEC02245B
:101ED00008B531B1044B40F29711044A044830F080
:101EE00093FE90F8390008BDEAAA0308FEAA030889
:101EF0008CAC030810B531B1064B40F29111064A83
:101F0000064830F081FE406811460368BDE8104085
:101F10001B6B1847EAAA0308CCAC03088CAC030877
:101F200008B529B1034B7A21034A044830F06CFE0E
:101F3000006908BDEAAA03087EAE03088CAC03085A
:101F400008B529B1054B8321054A064830F05CFEEF
:101F500041618160C0E9063208BD00BFEAAA0308FA
:101F600037B003088CAC030810B5044629B1274BE1
:101F7000A421274A274830F047FE052A34D8DFE855
:101F800002F003292F34393E406803681B699847E3
:101F900050B34FF0FF31606D03F0C8FA0023012207
:101FA00094F83E1084F83B3084F83920A3606361D4
:101FB00001B1226284F83E306362E36A2BB90123E7
:101FC000206D84F83A3003F069FB606DBDE8104085
:101FD00003F0CFBA002380F8393084F83E3003E0B4
:101FE000036200238360436110BD036200238360AA
:101FF0004361F2E7002380F839300123EDE7003B2D
:1020000018BF012380F83D30EEE700BFEAAA0308BD
:10201000F7B103088CAC03082DE9F0410D460446E6
:10202000194635B9154B40F20131154A154830F0C3
:10203000EBFDC0E91052003A0368134E18BF0122AD
:10204000D3F8903032709847E569A5B12B681F68C6
:10205000337873B1236820465B6B9847236C8342C7
:1020600007D1616C094B28461A883B46BDE8F04110
:102070001847216CF6E7BDE8F08100BFCFB3030835
:1020800007B40308A7AA03080CEC022410EC0224EE
:1020900070B50446164629B1314BE721314A324822
:1020A00030F0B2FD90F8393033B1304B1B6893F803
:1020B0006F20436913444361E36A002B4DD0E1690B
:1020C000D4E905325343A2684A43934220D2236A9B
:1020D000002B42D04FF0FF31606D03F027FA236AE6
:1020E0000BB10023E362E36AFBB90125606D03F0E5
:1020F00040FA94F839300BB9236A3BB1E36A2BB943
:102100000123206D84F83A3003F0C8FA284670BDE8
:1021100094F84C000028DDD09B1AB3FBF1F29942F1
:1021200098BF02F1FF326262D4E7002294F83C507B
:10213000A3623046E262E2682261A2680132A260D4
:10214000336333685B699847002DCED194F83D30F6
:10215000002BCBD184F83950C8E70125C9E700BF6F
:10216000EAAA030855B403088CAC030818EC02244F
:10217000034690F87E0018B1586803681B6818473A
:1021800070470000034B4FF080629A604FF08072FE
:102190009A60704700E100E0084B4FF08062C3F89E
:1021A0008820BFF34F8FBFF36F8F4FF08072C3F85B
:1021B0008820BFF34F8FBFF36F8F704700E100E0BF
:1021C00038B5034690F8380048BB01224FF48074BC
:1021D00098609A639C87D86058619861D86118624A
:1021E00058629862D8621863586383F83E0081F899
:1021F00034204FF448720863CA864FF4F0720A879D
:102200009A6C186102F50C11D3E9104501F52051C3
:102210002C44A1420AD9094B5821094A03E0094B31
:1022200040F2F511084A094830F0EEFC1A6302F555
:102230008C12996402F5A0525A6338BDB5B70308F1
:10224000F5B70308FAB503082AB603088CAC0308EF
:10225000002370B5124E04468380124B036033682E
:1022600093F85C200AB1186D00B9986803681B6B7D
:102270009847431E5D425D413368186D30B1036875
:102280001B6B9847012808BF45F001052DB9064B87
:102290002721064A064830F0B7FC204670BD00BF33
:1022A00018EC022474C203089CB90308FAB90308A5
:1022B00033BA030870B5254E3568BFF35B8F15F050
:1022C000010540D1304628F083FD00283BD0204C4A
:1022D000204B04F134002561E584A562A585C4E99D
:1022E0000035C4E902551AF022F804F1580015F03F
:1022F0004DF9194B2046A365184B40F8843BFFF776
:10230000A7FF174B1748C4F884302433C4F8905003
:10231000C4F88C304FF4C803C4F89C50C4F8A850DB
:10232000C4E928350023C4F8AC30C4F8B030C4F890
:10233000B430C4F8B8300C4BC4F8983030F084FC9A
:10234000304628F061FD024870BD00BF6CA000243B
:1023500070A00024E0CB030894C203080CC3030858
:102360002CCC0308A11C000864CC030838B5184C19
:1023700023685BB3174B184A1B6C11888B4216D12C
:10238000164B0025198805F0A3FD236893F86E20ED
:1023900083F88050013283F86E2000F0E5FB20685E
:1023A00013F04CFB2846BDE8384001F03ABA05F07E
:1023B0008FFD2468236820461B6A9847012300206C
:1023C00084F88030BDE8384001F02CBA38BD00BF39
:1023D00018EC0224001000506AA0002468A0002419
:1023E0002DE9F74304464FF4166894F83A304FF05D
:1023F000FF31002B31D0606D03F098F8276BA36A92
:10240000BB4200D1676B266A656856B32B683146BC
:1024100028465B6A98470023236284F83B30606D4E
:1024200003F0A7F82B684FF448723946CDF80080C6
:1024300028465E694FF4F073B0474FF0FF3106460F
:10244000606D03F073F894F83B30E3B1002384F837
:102450003B30606D03F08DF8C7E7206D03F0F2F8B4
:10246000C3E7636A002BDAD02B682846D3E90993C7
:102470009847616A01442846C847A368626A666251
:102480001344A360CBE7E7625EB12B6828469B6AE2
:10249000984701380023E06084F83C6084F83A30C3
:1024A000D7E70120F6E70000014808B5FFF798FFDD
:1024B0002CA100240368042270B504465E6A002340
:1024C0000D46B0474FF0FF31606D03F02FF8382311
:1024D00003FB0542D16A09B10021D16203FB054526
:1024E000012385F83B30002385F83930606DBDE865
:1024F000704003F03EB838B500EB810304460D464A
:10250000114658680368DB68984729462046FFF75C
:10251000D1FF38BD70B50D461146044600EB85026B
:102520005068026896681A46B04729462046FFF769
:10253000C1FF70BD38B51648002500F0F1FC154C00
:10254000154B01202A46294623604FF48073A56469
:10255000A38784F84C0084F83E50C4E91055C4E9C0
:102560001455C4E90155C4E90355C4E90555C4E946
:102570000755C4E90955C4E90B55C4E90D5503F0E5
:1025800017F82065284602F09CFF606538BD00BF43
:1025900084A100242CA1002458C3030803685B6CA9
:1025A000184701207047FEE740F2EF307047000007
:1025B00010B504464FF0FF31D0F8A40D02F0B6FF7D
:1025C000606803681B68984778B9637A6BB1237AAF
:1025D0005BB984F8A03D204623685B6A9847D4F82D
:1025E000A40DBDE8104002F0C4BF0B490B4A0B68B4
:1025F0001B01D35C012BF2D1207A0028EFD1A07A05
:102600000028ECD1086884F8A03D02EB001023728A
:1026100001F088F8E3E700BF10B700240C000024A5
:10262000054B4FF080620360044BC3F88820BFF372
:102630004F8FBFF36F8F704798C3030800E100E02E
:1026400010B5044640F6A851FFF7EAFF204628F0EF
:10265000BDFB204610BD0000104B82B0D3F8D42043
:1026600042F01002C3F8D420D3F8D42002F01002B4
:102670000192019ADA6F42F01002DA67DA6F22F003
:102680001002DA67064B074A1A62074A5A62074B7A
:102690004FF080629A6002B0704700BF0044025859
:1026A00028DA0224F5280008A725000800E100E048
:1026B00008B50A2809D8DFE800F006100E08080857
:1026C000081010101000022008BD054B9121054A8A
:1026D000054830F099FA0020F6E70120F4E700BF42
:1026E00093BA0308AEBA0308F9BA030838B50C4622
:1026F000887FFFF7DDFF124BA58AE28A586342EA22
:10270000054221695A64628BD963521B1A64256899
:10271000082D0ED19A611A6158620A4A207F42EA56
:102720000062DA61E2681A62074A5961D9601A6088
:1027300038BD0022D8611A61E2689A63034AF6E75D
:1027400000100052090001000123020001230300D0
:1027500008B50B280BD8DFE800F00612100A0A0AA9
:102760000A0808080808022008BD0520FCE7054BF8
:102770007021054A054830F047FA0020F4E70120AF
:10278000F2E700BF93BA030824BB0308F9BA0308B1
:102790002DE9F8434F7F89463846FFF7D9FF99F86E
:1027A0001E5080462846FFF7D3FF06462846FFF70F
:1027B0007FFFB9F81410B9F81A40B9F81820454B42
:1027C000641A521A1C649C611A61B9F81620586385
:1027D00042EA0142D9F810105A64D9F80420D963AA
:1027E000DA60D9F8004099F81C20802C22D00FD84C
:1027F000202C66D0402C64D0042C5CD048EA0260C7
:10280000344BAF4240F40030D86160D0324A3FE0F0
:10281000B4F5807F04D0B4F5007FEFD12F4800E0FD
:102820002F4840EA0262DA61D9F80C201A625E622F
:1028300059612CE048EA0260D9F8084040F40030C1
:10284000D8615E625961211DD962217841B10129A7
:1028500021D0244B40F20B11234A244830F0D4F904
:10286000DA69618822F47F42013922F0100242EADB
:102870000122DA610122174BD96941F02001D961A7
:10288000D9698906FCD410219960002ABED0184A63
:102890001A60BDE8F883D969FF3A608821F47F4166
:1028A00018BF0122013821F0100141EA002141F056
:1028B0001001D961DFE748EA026242F40032DA61CE
:1028C000B5E748EA0262034B42F40032F7E742F20E
:1028D0000132DDE70010005201230100090002006F
:1028E0000A0002006EBB030888BB0308F9BA03089C
:1028F00001230200024B1B68586803685B69184794
:1029000018EC022490F8A03D10B50446D3B9036832
:102910009B6A984719491A4A0B681B01D35C012B23
:102920002AD11848006838BB207A28BBA07A18BB87
:10293000086884F8A03D237202EB0010BDE8104047
:1029400000F0F0BE037A43B1002303720B4B18680A
:102950000B4B03EB001000F01FFF606803681B685F
:10296000984748B9637A3BB1236884F8A00D2046A4
:102970005B6ABDE81040184710BD00BF10B70024C7
:102980000C0000240CB7002470B504460E4B0C302C
:1029900000262546602260602672667245F8203B5C
:1029A000294613F0A3F904F55A63EE6024359D42DD
:1029B000FBD184F8A06D0020C4F8A46D02F081FD65
:1029C000C4F8A40D204670BD98C30308034B1A68D1
:1029D000D207FCD423229A60704700BF0010005237
:1029E0000B4A5369DB0311D500290FDD00F01F03EB
:1029F0001944BFF34F8F0144C2F8680220300B1A0C
:102A0000002BF9DCBFF34F8FBFF36F8F704700BF10
:102A100000ED00E030B5104C2568ED07FCD423250F
:102A20000904FF2BA5604FF0010541EA050165632C
:102A30006164E0630CD0094922F07F42656241EA9B
:102A40000363E361064B22626061E060236030BD96
:102A5000E561044BA263F9E7001000520900010090
:102A6000010002000100030030B50E4C2568ED079F
:102A7000FCD423251204FF2BA5604FF0010542EA88
:102A8000050265636264E063E16007D0064A42EADA
:102A90000363E36165626061226030BD034BE36103
:102AA0002560FAE70010005201000200010002FF59
:102AB00030B50B4C2568ED07FCD4232512041B060A
:102AC000A560012543F400332A4365636264E06333
:102AD000E160E361034B65626061236030BD00BF6C
:102AE00000100052010002000121002208B5084632
:102AF00002F05EFD0A4B186028B90A4B28210A4AE9
:102B00000A4830F081F800220421012002F0EFFD94
:102B1000074B186018B9074B2C21034AF0E708BD92
:102B2000D0A10024C6BB03080FBC03083EBC0308A9
:102B3000CCA100246BBC0308024B4FF0FF31186896
:102B400002F080BDD0A10024014B186802F0A6BDA0
:102B5000D0A10024024B0021186802F073BD00BF11
:102B6000D0A10024FFF7F0BF0023034803491A4611
:102B7000006802F0F7BD00BFCCA1002404000024CF
:102B800013B50023074C01A91A46206802F01BFE6A
:102B90004FF0FF33002201A9206802F014FE02B0BA
:102BA00010BD00BFCCA10024012070470C2070474D
:102BB0000C2303FB0100083070470C2303FB0100CA
:102BC00008307047012070474FF4976070474FF40A
:102BD000976303FB0100083070474FF4976303FBD2
:102BE000010008307047012070471020704700EB4B
:102BF00001100830704700EB01100830704708469C
:102C0000FEF7A8BD034B10B50446036011F0CCF9E4
:102C1000204610BD50C4030810B50446FFF7F2FF6C
:102C20001421204628F0D2F8204610BD034B10B5E1
:102C30000446036011F0B8F9204610BD1CC4030817
:102C400010B50446FFF7F2FF4FF49861204628F0D4
:102C5000BDF8204610BD0000034B10B504460360CC
:102C600011F0A2F9204610BDE8C3030810B50446D0
:102C7000FFF7F2FF1821204628F0A8F8204610BDE3
:102C8000084B10B50446036000F2EC40FFF7BAFFB2
:102C900004F12C00FFF7CAFF04F11400FFF7DCFF7A
:102CA000204610BD84C4030808B50248FFF7E8FFBA
:102CB00008BD00BF98B0002410B50446FFF7E0FF40
:102CC0004FF4CC61204628F081F8204610BD00006A
:102CD0002DE9F341FEF7B2FE00240546FEF7B2FEF1
:102CE000234601462246284600941BF03DFC274B14
:102CF000274A2046274D1A60FEF730FF264B274A09
:102D000027489A601BF0E0FA2B68BFF35B8FDB0764
:102D100035D4284628F05CF888B3224C224B04F2C4
:102D2000045604F1140004F12C0804F2EC4723606B
:102D30006060C4F80880E760266111F037F91B4B2A
:102D40004046636111F032F9194B3846E36211F0E5
:102D50002DF9184B04F5A060C4F8EC34FEF7C2F866
:102D6000224604F5A0613046FEF706F93046FEF72C
:102D7000F1FC11482FF068FF284628F045F80F486D
:102D800002B0BDE8F04100F02CBD00BF74EC02249D
:102D90005CA2002494B000247CA2002460A2002441
:102DA0000800002498B0002484C40308E8C3030882
:102DB0001CC4030850C40308A92C0008D4A1002493
:102DC00070470000014812F086B800BFD4A100246B
:102DD00070B5274E274B284C3046284D2360FFF70F
:102DE000D3FD28461FF062FD254818F0BDFF254B96
:102DF00000224FF4807124481A639A8683F85C207D
:102E00009A6683F874209A67DC60C3E913121F493D
:102E1000C3E91B121E49C3E91F011E491E48C3F81E
:102E200084101E49C3E90422C3E90622C3E908222B
:102E3000C3E90A22C3E90F22C3E91122C3E915221B
:102E4000C3E91822C3E901650B604FF4806183F880
:102E500038200180124801804FF41671114801801A
:102E60001148018011490A70114A1A6070BD00BFF3
:102E7000E8A20024C8C5030890B000247CA2002466
:102E800060A20024D4A1002400000101010000017F
:102E9000000496003200140014EC022418EC022402
:102EA00010EC022412EC02240EEC02240AEC0224A0
:102EB000DCC403080148FFF7B3BB00BFE8A200244D
:102EC0004069704790F840007047036B23B9C06AAF
:102ED000003818BF01207047012070478068704794
:102EE0007047043010B50C460FC884E80F0010BDC1
:102EF0007047000008B5034A4FF4E471024B0348E1
:102F00002FF082FEADBC03082CA8030808BD0308FF
:102F100010B50446482127F059FF204610BD000097
:102F200000220E4B10B5114604460360C26380F8C0
:102F30004020C0E90522C0E90722C0E90922C0E912
:102F40000B22C0E90D22C0E90322C0E901220120C1
:102F500002F02EFB024B1860204610BD98C40308F7
:102F600014B7002410B40C4611461A46036B3BB14B
:102F7000C36B406BE41A20445DF8044B32F064BA32
:102F8000C06AF8E7036B10B573B1C36B426BC91A23
:102F90005318525C98785C78000440EA042010438F
:102FA000DB7840EA036010BDC26A5318525C59785E
:102FB0009878000440EA0120F1E7036B43B1C36B4A
:102FC000C91A436B5A18585C527840EA022070477D
:102FD000C36A5A18585C537840EA032070470000CF
:102FE00070B50446006B0D461646D8B1A36B9342EC
:102FF00008D209230D4AA0210D4884F840300D4B1A
:103000002FF002FE0368DB689847206B3246616B45
:1030100003681B69984710B90D2384F84030606B32
:10302000E56370BDE06A0844FBE700BF52BD0308DA
:1030300008BD03083FBD03082DE9F8434369044672
:103040002BB9224BE621224A22482FF0DDFD08222F
:103050008169FFF7C5FFA16943F2300646F2643784
:1030600004312046FFF78EFFA3691844A36A00F1DC
:1030700008029A4206D3012300206361236AA361F8
:10308000BDE8F883636900F1090108222046013395
:1030900021F001016361A161FFF7A2FFD4F818904C
:1030A00020464946FFF789FF09F102018046204684
:1030B000FFF783FF09F1040105462046FFF762FF91
:1030C000B045D1D1BD42CFD10120D9E794BD03088D
:1030D000DDBD030808BD03080129036838BF0121CD
:1030E000DB6A70B50D4604469847A84204D22368AF
:1030F0002046DB6A984705466B1EE669102220468B
:1031000006EB031606F10801FFF76AFF06F110014E
:103110002046FFF737FF236A043B0344C4E9055305
:1031200070BD0000002148222DE9F0410446816174
:1031300080F84010FFF754FFA6690423634A314624
:103140002046FFF70FFF48B10323614A4FF4977100
:1031500084F840305F4B60482FF056FD06F10801BF
:1031600004235E4A2046A161FFF7FCFE38B1042328
:10317000574A4FF49B7184F84030594BEBE706F106
:103180000C010423574A2046A161FFF7EBFE0746D6
:1031900038B105234E4A40F23D1184F84030524B7D
:1031A000D9E706F110012046FFF7ECFE054620B9ED
:1031B0004E4B40F24311464ACDE706F11408042372
:1031C0004B4A20464146FFF7CDFE002849D0062352
:1031D00084F840300423474A06F118012046FFF7DF
:1031E000C1FE00283FD0072384F840304544424FB9
:1031F0000C2220462946FFF7F3FE05F108060423BA
:103200003A4620463146FFF7ADFE94F8403000289C
:1032100048D0002B48D1A36AAB4249D805F10C0332
:1032200004352046A3612946FFF7ACFE3044294609
:1032300060622046FFF7A6FE06440422204631467F
:10324000FFF7CEFE04232D4A31462046FFF78AFEC3
:10325000002838D10123E6616361A3692362BDE8D8
:10326000F0810127B6E7002FC0D006F120012046EB
:10327000FFF788FE4FF47A7306F13001B0FBF3F0EC
:1032800060602046FFF77EFE06F14001A060204608
:10329000FFF778FE06F14401E0602046FFF772FE7A
:1032A0002061A3E7002BB9D00A2384F84030D6E789
:1032B000291D2046FFF766FE85190C222046294667
:1032C000FFF78EFE99E70B23EFE700BF10BE030860
:1032D0002EBE030815BE030808BD03085BBE030825
:1032E00060BE030878BE03087DBE030893BE0308D2
:1032F0009FBE0308A4BE0308A9BE0308AEBE030810
:10330000C0E90A2100220263FFF70CBF10B50023B9
:1033100004460846E3620B6821639B689847A062F5
:103320002046BDE81040FFF7FDBE000037B5134B47
:103330000024134D1C60134B1C60134B2C601C604D
:10334000124B1960124B1A60124B1C60124B2A6808
:103350004FF4C0751C701C74C3E90244C3E90644F1
:1033600003EB02130D4AD2686A4300924FF45042B5
:103370005B680AF011FF204603B030BD2CB7002473
:103380001CB7002410B700243CB7002434B7002435
:1033900038B7002418B700240C000024F8B6002425
:1033A0004B68012B15D1CB681A071EBF23F00F0302
:1033B0001033CB608B6818071EBF23F00F03103348
:1033C0008B60CB688A681B09120953430E4A13604D
:1033D0007047022B0ED1CB681A0703D023F00F03DE
:1033E0001033CB608B685A071EBF23F007030833E6
:1033F0008B607047002BFCD1CB685807F2D023F0CC
:1034000007030833EDE700BF24B700240B4A136815
:103410000B4430B413600A4A126893420CD2094C30
:10342000D21A2568B2F5504F294428BF4FF45042B4
:10343000216030BC0AF012BF30BC70473CB700249A
:1034400038B7002434B70024F8B5204C0121204DB2
:10345000064623681F4F1B01E954236805EB03133D
:103460009A601D4B1968226805EB0212D1601A6838
:10347000F9680A441A602368013323602368012B2A
:1034800001D90023236023681B01EB5C33B10221C7
:1034900030460AF0B5FE114B01221A602268304610
:1034A000FB6805EB02154FF4C07269685A430AF0D5
:1034B000D8FE0B4B1B681A7A3AB99B7A2BB9094B89
:1034C0001868BDE8F84002F0E9B8F8BD1CB7002460
:1034D0000C000024F8B6002418B700242CB70024F0
:1034E00020B7002414B7002472B6FEE7014B012276
:1034F0001A60704730B7002438B5164D04462B6863
:1035000013B1154B1B681BBB144B1868037A63B9C6
:10351000134B144A1B681B01D35C012B05D10E4BC6
:103520001B6813B903681B6998470F4A1368012B7E
:103530000CD10E4B0B491B681B01CB5C33B92B68BC
:1035400023B90221204613600BF0B7F8022038BDE2
:103550000120FCE730B700240CB7002420B700247A
:1035600010B700240C0000242CB700241CB7002442
:1035700070B50546002A37D0002B35D01B480324F0
:103580000461EC6826074FF4166618BF24F00F0498
:10359000466018BF103404602409C4602C6914F01C
:1035A0000F0418BFC4F1100484601148114C03606B
:1035B0001148FFF7BBFE6A6C104B0F4D1A6028468E
:1035C000FFF79AFF20602368022B05D10C4B4FF0C8
:1035D000FF31186802F036F82368012BEFD1002381
:1035E000084A1360084A136070BD00BFF8B6002493
:1035F00040B7002428B7002464DE022420B700244A
:1036000014B7002430B700240CB700242DE9F04F84
:103610009946436985B004460F4690462BB9294B1D
:10362000B221294A29482FF0EFFA08228169FFF7D1
:10363000D7FCA66920463146FFF7BFFCB11C834684
:103640002046FFF7BAFC311D82462046FFF79AFC60
:1036500006F10801A36A05460A189A4226D243F2E7
:1036600030039B4517D146F264339A4513D190B18C
:103670000246A1612046FFF7B3FC0E9B01462A4695
:103680002046CDF80080CDE901933B46FFF770FF5F
:10369000636901336361A3692B4405B908330133BE
:1036A000626A23F001039342A36109D1012301203F
:1036B0006361236AA36180F0010005B0BDE8F08F6B
:1036C0000020F8E794BD0308B3BE030808BD030853
:1036D000F8B50446816916460822FFF781FCA76900
:1036E0002046391DFFF74EFC07F10801024605464A
:1036F0002046FFF775FC01466EB12A46074C084D7F
:1037000033460748FFF712FE2846FFF7F5FE206014
:103710002368002BF8D00120F8BD00BF28B7002493
:1037200064DE0224F0B5C7680122154C3901154E3C
:103730002368B1FBF3F163685943134B5A630901E2
:10374000E26836681505B61AB74215D3A468C4F105
:1037500010042C435C640D4CC2F132022468120147
:103760002144D9631A6400221A61094ADA61426865
:10377000DA60084A1A60F0BD45F010055D64EAE7BA
:10378000F8B6002424B700240010005240B70024EB
:103790000B0009FF012301000C4B00220270196885
:1037A0008260013119601968012900D91A60084B3B
:1037B000084A1B68D2689B1AC2689A4202D3064B19
:1037C00001221A60054B186801F068BF10B7002489
:1037D00024B70024F8B600240CB7002414B7002442
:1037E0007047FEF7B7BAFEF781BAFEF785BAFEF763
:1037F000E7BAFEF7E7BAFEF755BAFEF7C3BCFEF725
:10380000CBBCFEF759BAFEF7CFBAFEF7CFBA11F02C
:10381000F8BA10B50446882127F0D8FA204610BD22
:1038200070477047704770477047000010B5124CE2
:1038300001222021204603F035FF642002F002FB24
:1038400000222021204603F02DFF642002F0FAFA26
:1038500001222021204603F025FF4FF47A7002F068
:10386000F1FA28200022072102F040FF2820BDE8BD
:10387000104002F06DBF00BF0028025830B587B07D
:103880000D4614460021102202A831F023FD174BEB
:103890001A7812B9002007B030BD002282211448E6
:1038A0001A70642302AA0093102304F0BDF80028C4
:1038B000F0D19DF80830482BECD19DF80B209DF8F5
:1038C0000A3002F00F029DF80D100A4843EA022365
:1038D000094A01F00F0113609DF80C2042EA012211
:1038E00002602B60036801202360D4E74CB70024FA
:1038F00038DD022444B7002448B7002410B504463C
:10390000042127F063FA204610BD0000B0F5006FD7
:1039100002D1024B01221A70704700BF4CB700243D
:10392000704708B5FFF74CFABDE80840FFF7D0B97B
:10393000FFF748BA00F108034FF0FF32436003611C
:10394000C0E902230023036070470023036170472E
:1039500043689A684B608A605160996003680861A7
:1039600001330360704730B50C68631C0AD10369EA
:103970005A684A6091608B6059600368086101333E
:10398000036030BD00F10802134652681568A54275
:10399000FAD9EDE70369D0E901128A6051605968EC
:1039A000814208BF5A60002202611A68013A1A6017
:1039B0001868704710B5044602F0C4F8A46B02F012
:1039C000E1F8B4FA84F0400910BD70B51646026CF7
:1039D0000446856B42B906689EB9806801F048FAD2
:1039E000A6600135A56370BD6EB94068FCF728FE7E
:1039F0006368226C1344A2689342636024BF236807
:103A000063600020EDE7C068FCF71AFE226CE368F3
:103A100051429B1A22689342E3603EBFA3685B1841
:103A2000E360022EEDD10DB1013DEAE72846D8E76B
:103A3000034608461A6C10B462B1DC6899681444F5
:103A40008C42DC605DF8044B24BF1968D960D968EA
:103A5000FCF7F6BD5DF8044B704770B5044602F004
:103A600071F894F8455004F124066DB2002D01DD83
:103A7000636AB3B9FF2304F1100684F8453002F0FD
:103A800081F802F05FF894F844506DB2002D01DD2A
:103A900023697BB9FF2384F84430BDE8704002F00D
:103AA00071B8304601F000F908B101F087F9013D25
:103AB0006DB2DBE7304601F0F7F808B101F07EF9AE
:103AC000013D6DB2E2E738B50D46044640B94FF00E
:103AD000500383F31188BFF36F8FBFF34F8FFEE75F
:103AE00002F030F82268D4E90F3162604B43D018FD
:103AF0005B1AA0601A440020FF23E260A06384F8F0
:103B0000443084F84530A5B9236973B104F110003D
:103B100001F0CAF848B14FF0E0234FF08052C3F8EB
:103B2000042DBFF34F8FBFF36F8F02F02BF80120EE
:103B300038BD04F11000FFF7FDFE04F12400FFF78B
:103B4000F9FEF2E737B50D461C4640B94FF0500379
:103B500083F31188BFF36F8FBFF34F8FFEE743B935
:103B60004FF0500383F31188BFF36F8FBFF34F8F74
:103B7000FEE74AB191B94FF0500383F31188BFF3C8
:103B80006F8FBFF34F8FFEE741B14FF0500383F3C8
:103B90001188BFF36F8FBFF34F8FFEE75023019360
:103BA000019B502B08D04FF0500383F31188BFF3D3
:103BB0006F8FBFF34F8FFEE70121002D08BF224614
:103BC000019B84F846102260C4E90F052046FFF7E8
:103BD0007AFF9DF81830204684F84C3003B030BD91
:103BE000F8B50D461746064640B94FF0500383F32B
:103BF0001188BFF36F8FBFF34F8FFEE748435030FC
:103C000001F066FE044670B1002380F8463065B1CD
:103C100000F15003012120462360C4E90F65FFF73E
:103C200052FF84F84C702046F8BD0346F2E713B506
:103C300013460C4640B94FF0500383F31188BFF38D
:103C40006F8FBFF34F8FFEE7884208D24FF05003CB
:103C500083F31188BFF36F8FBFF34F8FFEE702220C
:103C6000009200221146FFF76DFF00B1846302B09D
:103C700010BD10B50C4640B94FF0500383F31188C6
:103C8000BFF36F8FBFF34F8FFEE7884208D24FF02C
:103C9000500383F31188BFF36F8FBFF34F8FFEE79D
:103CA00002220021FFF79CFF00B1846310BD2DE9C3
:103CB000FF410F461E460446019240B94FF05003A3
:103CC00083F31188BFF36F8FBFF34F8FFEE751B9B6
:103CD000036C43B14FF0500383F31188BFF36F8F30
:103CE000BFF34F8FFEE7022E0BD1E36B012B08D001
:103CF0004FF0500383F31188BFF36F8FBFF34F8FE3
:103D0000FEE701F067F8054620B300254FF00008F4
:103D100001F018FFA26BE36B9A4227D23246394674
:103D20002046FFF752FE636A1BB104F1240000F045
:103D3000BBFF48B14FF0E0234FF08052C3F8042D91
:103D4000BFF34F8FBFF36F8F01F01CFF012004B052
:103D5000BDE8F081019B002BD8D04FF0500383F3D6
:103D60001188BFF36F8FBFF34F8FFEE7022ED5D0C0
:103D7000019B1BB901F006FF0020E8E715B902A876
:103D800000F0D4FF01F0FEFE00F0C6FD01F0DAFE07
:103D900094F84430FF2B01D184F8448094F84530E6
:103DA000FF2B01D184F8458001F0ECFE01A902A8A7
:103DB00000F0C8FF38BB01F0C5FEA26BE36B9A426E
:103DC0000ED101F0DFFE019904F1100000F034FF84
:103DD0002046FFF742FE00F04BFE48B1012597E771
:103DE00001F0D0FE2046FFF738FE00F041FEF5E777
:103DF0004FF0E0234FF08052C3F8042DBFF34F8FF4
:103E0000BFF36F8FEAE72046FFF727FE00F030FE92
:103E1000B2E700220B4613B5114600900120FFF7D0
:103E200091FE044638B100231A46194683600360A8
:103E3000C360FFF73CFF204602B010BD38B5044612
:103E400040B94FF0500383F31188BFF36F8FBFF376
:103E50004F8FFEE7856800F0B7FF85420BD1E3681E
:103E6000013BE3600BB1012038BD1A4619462046DC
:103E7000FFF71DFFF7E70020F6E770B50646502074
:103E800001F026FD044698B100250121006080F86C
:103E90004650C0E90F15FFF716FE2B462A46294665
:103EA000204684F84C60A5602560E560FFF7FFFEC2
:103EB000204670BD2DE9F843894617461E46044644
:103EC00040B94FF0500383F31188BFF36F8FBFF3F6
:103ED0004F8FFEE751B9036C43B14FF0500383F3AA
:103EE0001188BFF36F8FBFF34F8FFEE7022E0BD108
:103EF000E36B012B08D04FF0500383F31188BFF31D
:103F00006F8FBFF34F8FFEE701F02EFFEFF31188A5
:103F10004FF0500383F31188BFF36F8FBFF34F8FC0
:103F2000A26BE36B9A4201D3022E1ED194F8455046
:103F30003246494620466DB2A36BFFF746FD6B1C27
:103F40000ED1636A3BB104F1240000F0ADFE10B164
:103F50000FB101233B60012088F31188BDE8F8838D
:103F600001356DB284F84550F5E70020F4E770B5EF
:103F70000D46044640B94FF0500383F31188BFF358
:103F80006F8FBFF34F8FFEE7036C43B14FF05003C9
:103F900083F31188BFF36F8FBFF34F8FFEE7036882
:103FA00053B9836843B14FF0500383F31188BFF3D3
:103FB0006F8FBFF34F8FFEE701F0D6FEEFF3118650
:103FC0004FF0500383F31188BFF36F8FBFF34F8F10
:103FD000A26BE36B934219D994F845100132FF2983
:103FE0004BB2A2630DD1636A3BB104F1240000F02F
:103FF0005BFE10B10DB101232B60012086F3118807
:1040000070BD01335BB284F84530F6E70020F5E778
:104010002DE9FF410E460446019240B94FF050038E
:1040200083F31188BFF36F8FBFF34F8FFEE751B952
:10403000036C43B14FF0500383F31188BFF36F8FCC
:10404000BFF34F8FFEE700F0C5FE054618B300250D
:104050004FF0000801F076FDA76B47B3013F3146F2
:104060002046FFF7E5FCA763236973B104F1100054
:1040700000F01AFE48B14FF0E0234FF08052C3F831
:10408000042DBFF34F8FBFF36F8F01F07BFD012035
:1040900004B0BDE8F081019B002BD9D04FF0500354
:1040A00083F31188BFF36F8FBFF34F8FFEE7019B40
:1040B0001BB901F067FD0020EAE715B902A800F07E
:1040C00035FE01F05FFD00F027FC01F03BFD94F8A8
:1040D0004430FF2B01D184F8448094F84530FF2B05
:1040E00001D184F8458001F04DFD01A902A800F03E
:1040F00029FE00BB2046FFF75DFCB0B1019904F139
:10410000240000F099FD2046FFF7A7FC00F0B0FC6A
:1041100048B94FF0E0234FF08052C3F8042DBFF3AD
:104120004F8FBFF36F8F012594E72046FFF795FC73
:1041300000F09EFCF7E72046FFF78FFC00F098FCAC
:104140002046FFF737FC0028EDD0B4E7F0B585B086
:104150000446019140B94FF0500383F31188BFF337
:104160006F8FBFF34F8FFEE7056C45B14FF05003E3
:1041700083F31188BFF36F8FBFF34F8FFEE700F01B
:1041800029FE064620B32E46002701F0DBFCA36B78
:1041900053B3013BA363236813B900F0F9FEA06099
:1041A000236973B104F1100000F07EFD48B14FF0B7
:1041B000E0234FF08052C3F8042DBFF34F8FBFF3BD
:1041C0006F8F01F0DFFC012005B0F0BD3546DBE765
:1041D000019B002BFAD04FF0500383F31188BFF3FB
:1041E0006F8FBFF34F8FFEE7019B53B9002D66D051
:1041F0004FF0500383F31188BFF36F8FBFF34F8FDE
:10420000FEE716B902A800F091FD01F0BBFC00F03A
:1042100083FB01F097FC94F84430FF2B01D184F824
:10422000447094F84530FF2B01D184F8457001F0BB
:10423000A9FC01A902A800F085FD50BB2046FFF7AC
:10424000B9FB00B323683BB901F07CFCA06800F027
:10425000D1FD054601F096FC019904F1240000F01F
:10426000EBFC2046FFF7F9FB00F002FC48B94FF0E9
:10427000E0234FF08052C3F8042DBFF34F8FBFF3FC
:104280006F8F012681E72046FFF7E7FB00F0F0FB88
:10429000F7E72046FFF7E1FB00F0EAFB2046FFF7D7
:1042A00089FB0028EDD065B101F04CFC616A19B1C1
:1042B000236B1968C1F13801A06800F01BFE01F002
:1042C00061FC002080E770B50D46044640B94FF010
:1042D000500383F31188BFF36F8FBFF34F8FFEE757
:1042E000866800F071FD864204D1E3680120013345
:1042F000E36070BD29462046FFF728FF0028F8D06C
:10430000E3680133E360F4E72DE9F843894690461A
:10431000044640B94FF0500383F31188BFF36F8F09
:10432000BFF34F8FFEE751B9036C43B14FF0500319
:1043300083F31188BFF36F8FBFF34F8FFEE701F058
:1043400013FDEFF311874FF0500383F31188BFF390
:104350006F8FBFF34F8FA56B0DB394F84460494640
:104360002046013D76B2FFF763FBA563731C11D1B4
:10437000236953B104F1100000F096FC28B1B8F1A4
:10438000000F02D00123C8F80030012087F3118804
:10439000BDE8F883013676B284F84460F5E7284634
:1043A000F4E710B5044640B94FF0500383F3118889
:1043B000BFF36F8FBFF34F8FFEE701F0C3FBA36B1B
:1043C000E46BE41A01F0DEFB204610BD0023074A2F
:1043D00030B552F8335002EBC3041DB942F8331024
:1043E000606030BD0133082BF3D1FAE750B70024E9
:1043F0000023094A10B552F83310DC00814206D17F
:10440000064A002142F833102244516010BD0133A6
:10441000082BF0D1FAE700BF54B7002450B70024AE
:1044200010B540B94FF0500383F31188BFF36F8F7D
:10443000BFF34F8FFEE7FFF7DBFF90F846301BB965
:10444000BDE8104001F0DCBA10BD70B504460D4661
:10445000164601F077FB94F84430FF2B02D100237D
:1044600084F8443094F84530FF2B02D1002384F8BF
:10447000453001F087FBA36B2BB93246294604F186
:10448000240000F0F3FB2046BDE87040FFF7E5BADA
:104490002DE9F041044601F055FB2F4B2F4E1A68D1
:1044A0002F4F01321A603568002D4AD134601B68E5
:1044B000012B1FD1B84601354046FFF73BFA08F102
:1044C0001408382DF7D1DFF8C080264D4046FFF79D
:1044D00031FA2846FFF72EFA2348FFF72BFA234834
:1044E000FFF728FA2248FFF725FA224BC3F800808D
:1044F000214B1D60214A136801331360204A636415
:104500001168E36A8B4200D913601420211D00FB5F
:104510000370FFF71DFA01F035FB1A4B1B6873B1EE
:104520003368DA6AE36A9A4209D24FF0E0234FF027
:104530008052C3F8042DBFF34F8FBFF36F8FBDE8D8
:10454000F081104B1A68E36A002AD3D13268D26A2C
:104550009A42CFD83460CDE7B4B7002488BC002499
:1045600028B8002400B80024E4B70024D0B7002401
:10457000B8B70024FCB70024F8B7002498B700248B
:10458000ACB70024A8B7002414B80024F8B5154B24
:104590000646154D0F461C6828680430FFF7FAF9E7
:1045A000731C07D137B1296810480431BDE8F840C1
:1045B000FFF7CEB9A4192B685C6007D30C4B1868C1
:1045C0002968BDE8F8400431FFF7CDB9094B1868F8
:1045D00029680431FFF7C7F9074B1A68A24200D9CE
:1045E0001C60F8BDB0B7002488BC0024B8B7002414
:1045F000F8B70024FCB7002494B70024064A1368D7
:104600001968064B19B94FF0FF321A6070471268EB
:10461000D268D2685268F8E7FCB7002494B7002447
:1046200010B50446583030F0D1FF94F89D313BB9B5
:10463000206B01F0E5F92046BDE8104001F0E0B93B
:10464000012BF8D0022B08D04FF0500383F31188D0
:10465000BFF36F8FBFF34F8FFEE710BD80B5144CD3
:10466000144F154D236883B9144B1B68012B09D9CE
:104670004FF0E0234FF08052C3F8042DBFF34F8F6B
:10468000BFF36F8F0CF06EF9EBE701F05BFAFB689C
:10469000DE68301DFFF77EF92B68013B2B60236835
:1046A000013B236001F06EFA3046FFF7B9FFD9E70E
:1046B000CCB70024D0B70024B4B7002428B8002415
:1046C0002DE9F047960007460D46A521324698464B
:1046D000043EDDE90994206B30F0FCFD236B1E44A1
:1046E00026F00706002D52D06B1E04F133020F3561
:1046F00013F8011F02F8011F09B1AB42F8D10023E2
:1047000084F84330089D4FF0000A201D372DC4F86F
:1047100050A028BF3725E562E564C5F13805FFF7ED
:1047200014F904F11800FFF710F94FF4A072514684
:10473000C4F898A104F158002461A5616462C4F82A
:1047400054A084F89CA130F0C5FD124B3946304688
:1047500003F16802E365D033226601226366002319
:10476000C4E93C230C4A0D4BC4E93E230C4B4246A2
:10477000C4F800310B23A4F8043101F0BDF9206026
:10478000B9F1000F01D0C9F80040BDE8F08784F806
:104790003450B7E7A4F602240E33CDAB34126DE6E5
:1047A000ECDE050070B586B0DDE90B5445B94FF07D
:1047B000500383F31188BFF36F8FBFF34F8FFEE772
:1047C00044B94FF0500383F31188BFF36F8FBFF3E9
:1047D0004F8FFEE74FF4D0760596059EB6F5D07F55
:1047E00008D04FF0500383F31188BFF36F8FBFF3EE
:1047F0004F8FFEE725630225059E84F89D5104AD89
:10480000029401950A9D0095FFF75AFF2046FFF795
:104810003FFE049806B070BD2DE9F043074685B011
:10482000900088461646994601F052F8054620B990
:104830004FF0FF3005B0BDE8F0834FF4D07001F0C9
:1048400047F8044698B1002305633246414680F894
:104850009D310D9B0290384601930C9B00934B4673
:10486000FFF72EFF2046FFF713FE0120E2E7284660
:1048700001F0C6F8DCE7000010B588B0002407AAF4
:1048800006A905A8CDE9054400F0E4FF059B079AB9
:104890000293069B19491A48CDE900432346FFF7C6
:1048A00081FF40B300F0D2FB012819D14FF0500333
:1048B00083F31188BFF36F8FBFF34F8F114B124AF1
:1048C0001B68583313604FF0FF32104B1A60104BC7
:1048D0001860104B1C6008B0BDE8104001F0C2B970
:1048E000013008D14FF0500383F31188BFF36F8F6D
:1048F000BFF34F8FFEE708B010BD00BF0EBF030827
:104900005D46000888BC00245006002494B70024AB
:10491000A8B70024B0B70024024A1368013313601B
:10492000704700BF90B70024014B1868704700BF64
:10493000B0B7002408B501F017FA014B186808BD9C
:10494000B0B700243F4B1B682DE9F74F002B72D105
:104950003D4B1C6801341C60BCB93C4B1A681268A2
:1049600042B14FF0500383F31188BFF36F8FBFF351
:104970004F8FFEE7364A1968106818601160354A93
:10498000136801331360FFF739FE334D4FF0000B0E
:10499000324E2B68324F9C4212D23A681421D26AAE
:1049A0004A43B258022A2F4A126828BF4FF0010B1F
:1049B000002A18BF4FF0010B584603B0BDE8F08F36
:1049C000DFF88890DFF8A4A0D9F8002012681AB99F
:1049D0004FF0FF322A60E0E7D9F80020D268D2F821
:1049E0000C80D8F804108C4201D22960D5E708F178
:1049F000040318460193FEF7CDFFD8F8281019B12B
:104A000008F11800FEF7C6FFD8F82C00DAF80010FD
:104A1000884201D9CAF800001423019903FB006001
:104A2000FEF796FF3868D8F82C10C26A914228BF6A
:104A30004FF0010BC8E70C4A4FF0000B136801332D
:104A40001360B9E790B70024B0B70024FCB7002486
:104A5000F8B700249CB7002494B7002428B8002499
:104A600088BC0024A0B70024A4B70024ACB700245D
:104A70002DE9F041304C236843B94FF0500383F3E4
:104A80001188BFF36F8FBFF34F8FFEE701F05AF825
:104A90002368013B236024682CB1002401F072F8E4
:104AA0002046BDE8F081254B1B68002BF5D0244D36
:104AB000244EDFF8A0801DE0EB68DC68271D04F1C0
:104AC0001800FEF767FF3846FEF764FFE36A3268B6
:104AD000934200D933601420394600FB0380FEF76F
:104AE00037FF194BE26A1B68DB6A9A4202D3174B05
:104AF00001221A602B68002BDED10CB1FFF77EFD7E
:104B0000134D2C6844B1114E0127FFF71BFF00B174
:104B10003760013CF9D12C600C4B1B68002BBCD0DA
:104B20004FF0E0234FF08052C3F8042DBFF34F8FB6
:104B3000BFF36F8F0124B1E790B70024B4B700240E
:104B4000E4B70024ACB7002488BC0024A0B700243C
:104B5000A4B7002428B8002408B550B94FF0E023CA
:104B60004FF08052C3F8042DBFF34F8FBFF36F8F08
:104B700008BD0A4B196841B14FF0500383F3118807
:104B8000BFF36F8FBFF34F8FFEE7FFF7C5FEFFF751
:104B9000FDFCFFF76DFF0028E0D0E9E790B70024A7
:104BA000F8B51F4B1A681F4B12B101221A60F8BDED
:104BB0001D4C1A602268236812681B6B9A4204D845
:104BC0002068216834310BF0CEFE184E14271849A6
:104BD000326807FB02F3CD58C818A5B14568083301
:104BE0006D680B449D42456004BF6B6843601423AD
:104BF00003FB02114B68DB682360326023680D4AB7
:104C000058331360D3E742B94FF0500383F3118850
:104C1000BFF36F8FBFF34F8FFEE7013AD9E700BFB5
:104C200090B70024A0B7002488BC0024ACB70024AF
:104C300028B800245006002410B50C4640B94FF0A7
:104C4000500383F31188BFF36F8FBFF34F8FFEE7DD
:104C5000054B19681831FEF786FE20460121BDE894
:104C60001040FFF793BC00BF88BC002438B50D4648
:104C7000144640B94FF0500383F31188BFF36F8F90
:104C8000BFF34F8FFEE7074B19681831FEF760FE40
:104C9000002C21460CBF28464FF0FF30BDE83840BD
:104CA000FFF774BC88BC002438B5C368DC6844B91D
:104CB0004FF0500383F31188BFF36F8FBFF34F8F13
:104CC000FEE704F118052846FEF764FE114B1B6849
:104CD000D3B9251D2846FEF75DFE0F4AE36A116829
:104CE0008B4200D9136014200C4A294600FB032094
:104CF000FEF72EFE0A4BE26A1B68DB6A9A4206D96F
:104D00000120084B186038BD29460748F0E700200D
:104D1000F9E700BF90B70024ACB7002428B80024FE
:104D200088BC0024A0B70024E4B70024034B1B6810
:104D30000360034B1B684360704700BF9CB70024AF
:104D4000B0B7002470B50C46054640B94FF050038B
:104D500083F31188BFF36F8FBFF34F8FFEE741B925
:104D60004FF0500383F31188BFF36F8FBFF34F8F62
:104D7000FEE700F0E7FE0F4B196823685A1C10D0BD
:104D80000D482E6800686A68864201D08A420FD9B1
:104D9000881A83420AD95B1A284613442360FFF716
:104DA000C5FF002400F0EEFE204670BD0023236006
:104DB0000124F7E7B0B700249CB70024014B01227F
:104DC0001A607047A0B70024014B1868704700BFF5
:104DD00088BC0024054B1B6833B1054B1868B0FA3A
:104DE00080F040094000704701207047A8B70024B8
:104DF00090B70024F8B5044638B31A4DC36A2A6840
:104E0000D26A934226D28269002A04DB2A68D26AD7
:104E1000C2F1380282611422134E02FB03636269FD
:104E20009A4213D1271D3846FEF7B4FD2B680F4A6E
:104E3000DB6A1168E3628B4200D9136014203946A3
:104E400000FB0360FEF784FD0120F8BD2B68DB6AE0
:104E5000E362F9E72B68C06CDB6A98422CBF002044
:104E60000120F2E788BC002428B80024ACB7002455
:104E700038B508B9002038BD1B4B1C68844208D0E7
:104E80004FF0500383F31188BFF36F8FBFF34F8F41
:104E9000FEE7236D43B94FF0500383F31188BFF34E
:104EA0006F8FBFF34F8FFEE7E16A013BE26C236532
:104EB0009142DFD0002BDDD1251D2846FEF76AFD8B
:104EC000E36CC3F13802E362A261084A11688B42C5
:104ED00000D91360064A1420294600FB0320FEF780
:104EE00037FD0120C7E700BF88BC0024ACB7002411
:104EF00028B8002470B50446002842D0026D42B99B
:104F00004FF0500383F31188BFF36F8FBFF34F8FC0
:104F1000FEE7C36C994238BF1946C36A8B4230D052
:104F2000012A2ED1174A1268824208D14FF050034D
:104F300083F31188BFF36F8FBFF34F8FFEE7826952
:104F4000114D002A4FF01402C16202FB0353A8BFA7
:104F5000C1F138014269A8BF81619A4211D1061D91
:104F60003046FEF717FD094AE36A11688B4200D903
:104F700013601420314600FB0350BDE87040FEF77B
:104F8000E7BC70BD88BC002428B80024ACB700245E
:104F9000044B1A681AB119680A6D01320A6518685B
:104FA000704700BF88BC0024914208B54160006191
:104FB0000AD8D21A83699A420DD2011D074B18688C
:104FC000FEF7D1FC002008BD9A4201D2994202D2DC
:104FD000011D034BF3E70120F5E700BF88BD002466
:104FE0008CBD0024F7B5114C00F0ACFD2568BDB9AF
:104FF0000F4F104E3846FEF79DFC3046FEF79AFCE8
:105000000D4B0E4A10211F600A200D4B1E600D4BE8
:105010000095FEF797FD206010B10B49FFF7D6F918
:1050200003B0BDE8F04000F0ADBD00BF84BD00247A
:10503000A4BD002490BD00248CBD0024DCBC002451
:1050400088BD00248CBC002413BF030810B588B0B1
:10505000FFF7C8FF124B1B68B3B1002407AA06A9CB
:1050600005A8CDE9054400F001FC059B079A0293D1
:10507000069B0C49019302230B4800932346FFF73C
:1050800091FB0A4B186040B94FF0500383F311882D
:10509000BFF36F8FBFF34F8FFEE7012008B010BD45
:1050A00084BD002418BF0308A951000880BD002456
:1050B0007FB5164604461A4640B94FF0500383F3B5
:1050C0001188BFF36F8FBFF34F8FFEE70C4D286839
:1050D00078B105290294CDE900160CDCFFF77AFEC1
:1050E00000230228694628680CBF089A1A46FEF772
:1050F000DEFD04B070BD00236946FEF7DBFEF8E775
:1051000084BD00242DE9F347DFF898800646FFF7B9
:105110000BFC0546D8F80030834209D91F4F3B6885
:105120001A686AB91E4A116813600123396000E0E9
:10513000002328463360C8F8005002B0BDE8F0876D
:10514000DB68DC68D3F8009004F1040A5046FEF7EF
:1051500021FC236A2046984794F828305B07DED567
:10516000A3694B44994506D251463868636024616F
:10517000FEF7F9FBD3E700234A4620461946009381
:10518000FFF796FF0028CAD14FF0500383F3118830
:10519000BFF36F8FBFF34F8FFEE700BF8CBD0024BE
:1051A00088BD00247CBD00242DE9F0436E4D89B0FC
:1051B0006E4E2B68D3F80080B8F1000F35D0DB6855
:1051C0000024D3F80080FFF7A7FB04A8FFF79AFF9D
:1051D000049B8146002B69D1002C4CD1404550D313
:1051E000FFF746FC2B68DB68DF68381DFEF7D2FB53
:1051F00097F8283058071AD5B96943464A463846C1
:105200004144FFF7D1FEB0B123464246214638461D
:105210000094FFF74DFF70B94FF0500383F31188EE
:10522000BFF36F8FBFF34F8FFEE70124CBE723F06F
:10523000010387F828303B6A38469847002204A9C2
:105240003068FEF7E5FE0028B3D0049B0698002BDB
:105250002FDB069C6369002B32D103A8FFF752FFB6
:10526000049B0246092BE9D8DFE803F02E2E2E57C7
:105270005E762E2E575E3E4B1B681C68B4FA84F493
:1052800064092246A8EB09013068FFF7DEF8FFF752
:10529000EFFB0028D2D14FF0E0234FF08052C3F84B
:1052A000042DBFF34F8FBFF36F8FC7E7FFF7E0FB0E
:1052B000C4E7059B07999847049B002BBEDBC8E712
:1052C000201DFEF767FBC8E794F828302046A16947
:1052D00043F0010384F82830059B1944FFF764FE6E
:1052E0000028ABD0236A2046984794F82830590705
:1052F000A4D5A26900230599204600930A441946C3
:10530000FFF7D6FE002899D14FF0500383F31188A0
:10531000BFF36F8FBFF34F8FFEE794F8283023F071
:10532000010384F8283089E794F8283043F001031A
:1053300084F828300599A16141B94FF0500383F3F7
:105340001188BFF36F8FBFF34F8FFEE70346014411
:105350002046FFF729FE71E794F828309A07DED43B
:10536000204600F04DFB69E78CBD002484BD00247D
:1053700088BD002408B54FF0E0231B69FFF72AFD24
:10538000012803D0BDE8084000F044BC08BD00007F
:10539000EFF305832BB9064B186828B901221A6070
:1053A00070476FF0050070474FF0FF30704700BF47
:1053B000F8D8002408B5FFF70DFD38B1022804D055
:1053C000034B1868431E5842584108BD0320FCE7B0
:1053D000F8D8002410B5EFF305845CB9084B1A68BF
:1053E000012A0AD1074AD47702221A60FFF744FA49
:1053F000204610BD6FF00500FBE74FF0FF30F8E7E7
:10540000F8D8002400ED00E0EFF305830BB1FFF7BF
:1054100091BAFFF789BAF0B5144687B000220B465F
:105420000592EFF30582D2B9C8B1002C2ED0A56940
:10543000002D08BF1825691EAC4637292CD8616895
:10544000C90729D466696EB1B2082168D4E9027E21
:105450005FB1BEF5D07F02D3246904B1F6B90598D7
:1054600007B0F0BD4FF40072EFE7BEF1000FF6D1C8
:105470002469002CF3D105AC92B2CDE900C4FFF74A
:10548000CBF901281CBF00230593E8E721464FF024
:10549000180C4FF40072EEE71046E1E7CDE9014742
:1054A0000095FFF77FF90590D9E708B5EFF305827E
:1054B00022B908B1FFF750FB002008BD6FF00500CE
:1054C000FBE770B50546EFF3058616B100242046CC
:1054D00070BD10B146683307F8D406F001067DB1FF
:1054E000D5E9021351B14F2BF0D9DEB10420FEF7FC
:1054F00090FC04460028E9D02D680AE0002BE5D195
:1055000096B10420FEF7B9FC04460028DED0002D39
:10551000F2D129462046FEF759FF002ED7D044F09D
:105520000104D4E70120E2E70120EBE738B50346A8
:105530000C4620F0010003F00102EFF3058595B958
:10554000012B13D962B1FEF7BEFE012801D1002064
:1055500038BD002C14BF6FF001006FF00200F7E7B8
:10556000FEF7F4FDF1E76FF00500F1E76FF00300DF
:10557000EEE7024620F0010008B502F00103EFF368
:10558000058179B9012A10D93BB1FEF757FC0128F2
:105590000CBF00206FF0020008BD1A461946FEF746
:1055A00086FBF4E76FF00500F6E76FF00300F3E722
:1055B000F7B504460E461546EFF3058242B938B1F9
:1055C000884205D355B1D5E902372BB14F2F22D8E8
:1055D0000024204603B0F0BD002FF9D1012C0CD0DF
:1055E00020463146FEF745FB04460028F0D085B939
:1055F00029462046FEF7EAFEEBE7032200210120C0
:10560000FEF7EEFA0EE01A46FEF711FB04460028FC
:10561000DED02D68ECE70128F5D103210091114679
:10562000FEF790FA04460028D2D0002EDFD00023E7
:105630001A461946FEF73BFB0128D8D02046FEF754
:10564000EFFEC5E713B50C4628B3EFF30583CBB1E6
:1056500009BB01AA0191FEF757FE012803D06FF0A4
:10566000020002B010BD019B0BB90020F9E74FF01A
:10567000E0234FF08052C3F8042DBFF34F8FBFF3E8
:105680006F8FF2E7FEF762FD0128EED0002CE6D026
:105690006FF00100E5E76FF00300E2E707B518B32C
:1056A000EFF30583CBB1002301A90193FEF75FFC63
:1056B000012804D06FF0020003B05DF804FB019BE9
:1056C0004BB14FF0E0234FF08052C3F8042DBFF3ED
:1056D0004F8FBFF36F8F0020EEE71A461946FEF793
:1056E000E6FA0128F7D0E5E76FF00300E4E7F7B545
:1056F00005460E461446EFF305871FB100252846E0
:1057000003B0F0BD0028F9D00029F7D0DAB1D2E912
:10571000023283B14F2AF1D92269002AEED04D43DB
:105720006669AE42EAD30097FEF70CFA05460028F8
:10573000E4D0246811E0002AE0D12369002BDDD1F8
:105740006369002BDAD1284600223146FEF748FA79
:1057500005460028D2D0002CEBD121462846FEF782
:1057600035FECCE773B51C46EFF30586DEB138B3E2
:1057700031B32BBB01AA0193FEF79CFB012803D098
:105780006FF0020002B070BD019B0BB90020F9E779
:105790004FF0E0234FF08052C3F8042DBFF34F8F3A
:1057A000BFF36F8FF2E758B151B133462246FEF78F
:1057B0007EFA0128EAD0002CE2D06FF00100E1E788
:1057C0006FF00300DEE737B51C46EFF30583DBB16E
:1057D00030B329B324BB01AA0194FEF795FD01283B
:1057E00003D06FF0020003B030BD019B0BB9002065
:1057F000F9E74FF0E0234FF08052C3F8042DBFF3D8
:105800004F8FBFF36F8FF2E750B149B12246FEF7D9
:10581000FFFB0128EBD0002CE3D06FF00100E2E7A2
:105820006FF00300DFE7A0B1EFF305827AB1EFF389
:1058300011824FF0500181F31188BFF36F8FBFF3D6
:105840004F8FD0E90E01081A82F311887047FEF7D6
:10585000A8BD7047034B0360034B0B604FF400730C
:105860001360704758D7002458CF0024034B0360BF
:10587000034B0B604FF4806313607047B8CD002476
:10588000B8BD0024104B10B51A461B688342FBD3E9
:1058900054681119884201BF4168104609195160C6
:1058A000446801198B420CD1084909688B4203D026
:1058B00059682144416019689042016018BF106026
:1058C00010BD1946F8E700BF14D9002410D90024F0
:1058D0002DE9F0410446FFF71FF84249424D0B689D
:1058E0000BBB424A5607424E1BBFD01D02F5003289
:1058F0004FF4003320F007001CBF131A02460020AB
:10590000134432607060083B23F00703C3E90000D2
:10591000981A0B60C2E90030364B1860364B18609D
:105920004FF000432B602E68264255D1002C46D004
:1059300004F1080360071CBF23F007030833002BA2
:105940004AD02D4F3C689C4246D3294A1568686866
:10595000984204D2D5F800C0BCF1000F15D10968F7
:10596000A94239D02968D2F800801160C21A102AE1
:1059700012D9E81841070BD04FF0500383F3118878
:10598000BFF36F8FBFF34F8FFEE72A466546DEE712
:1059900042606B60FFF776FF6A6800231549A41A1E
:1059A00016430868154A84422B6013683C6003F173
:1059B000010338BF0C6008F108046E601360FFF744
:1059C00057F863070AD04FF0500383F31188BFF3F1
:1059D0006F8FBFF34F8FFEE70024F0E72046BDE84E
:1059E000F08100BF10D90024FCD800241CD9002469
:1059F00014D9002408D900240CD9002404D9002487
:105A000010B5044690B31A4A50F8043C1268134289
:105A100008D14FF0500383F31188BFF36F8FBFF3AA
:105A20004F8FFEE750F8081C41B14FF0500383F34D
:105A30001188BFF36F8FBFF34F8FFEE723EA020396
:105A400040F8043CFEF768FF0A4A54F8043CA4F10D
:105A5000080011680B441360FFF714FF064A13682F
:105A60000133BDE810401360FFF702B810BD00BF5E
:105A7000FCD800240CD9002400D900240848006870
:105A8000006880F308884FF0000080F3148862B645
:105A900061B6BFF34F8FBFF36F8F00DF00BF000011
:105AA00008ED00E0DFF80C00016841F470010160CE
:105AB0007047000088ED00E0002382B001930D4B99
:105AC0001B68013308D04FF0500383F31188BFF3F4
:105AD0006F8FBFF34F8FFEE74FF0500383F31188B2
:105AE000BFF36F8FBFF34F8F019B002BFCD002B031
:105AF000704700BF2C0000244FF0807321F001019B
